{"abi":[{"type":"constructor","inputs":[],"stateMutability":"nonpayable"},{"type":"receive","stateMutability":"payable"},{"type":"function","name":"MAX_BET","inputs":[],"outputs":[{"name":"","type":"uint256","internalType":"uint256"}],"stateMutability":"view"},{"type":"function","name":"MAX_PAYOUT","inputs":[],"outputs":[{"name":"","type":"uint256","internalType":"uint256"}],"stateMutability":"view"},{"type":"function","name":"MIN_BET","inputs":[],"outputs":[{"name":"","type":"uint256","internalType":"uint256"}],"stateMutability":"view"},{"type":"function","name":"UPGRADE_INTERFACE_VERSION","inputs":[],"outputs":[{"name":"","type":"string","internalType":"string"}],"stateMutability":"view"},{"type":"function","name":"cashOutFor","inputs":[{"name":"roundId","type":"uint256","internalType":"uint256"},{"name":"player","type":"address","internalType":"address"},{"name":"payout","type":"uint256","internalType":"uint256"},{"name":"multiplier","type":"uint256","internalType":"uint256"}],"outputs":[],"stateMutability":"nonpayable"},{"type":"function","name":"deposit","inputs":[{"name":"amount","type":"uint256","internalType":"uint256"}],"outputs":[],"stateMutability":"nonpayable"},{"type":"function","name":"depositWithPermit","inputs":[{"name":"amount","type":"uint256","internalType":"uint256"},{"name":"deadline","type":"uint256","internalType":"uint256"},{"name":"v","type":"uint8","internalType":"uint8"},{"name":"r","type":"bytes32","internalType":"bytes32"},{"name":"s","type":"bytes32","internalType":"bytes32"}],"outputs":[],"stateMutability":"nonpayable"},{"type":"function","name":"fundHouse","inputs":[{"name":"amount","type":"uint256","internalType":"uint256"}],"outputs":[],"stateMutability":"nonpayable"},{"type":"function","name":"initialize","inputs":[{"name":"_usdcToken","type":"address","internalType":"address"},{"name":"initialOwner","type":"address","internalType":"address"}],"outputs":[],"stateMutability":"nonpayable"},{"type":"function","name":"owner","inputs":[],"outputs":[{"name":"","type":"address","internalType":"address"}],"stateMutability":"view"},{"type":"function","name":"pause","inputs":[],"outputs":[],"stateMutability":"nonpayable"},{"type":"function","name":"paused","inputs":[],"outputs":[{"name":"","type":"bool","internalType":"bool"}],"stateMutability":"view"},{"type":"function","name":"placeBetFor","inputs":[{"name":"roundId","type":"uint256","internalType":"uint256"},{"name":"player","type":"address","internalType":"address"},{"name":"amount","type":"uint256","internalType":"uint256"}],"outputs":[],"stateMutability":"nonpayable"},{"type":"function","name":"playerBalances","inputs":[{"name":"","type":"address","internalType":"address"}],"outputs":[{"name":"","type":"uint256","internalType":"uint256"}],"stateMutability":"view"},{"type":"function","name":"proxiableUUID","inputs":[],"outputs":[{"name":"","type":"bytes32","internalType":"bytes32"}],"stateMutability":"view"},{"type":"function","name":"renounceOwnership","inputs":[],"outputs":[],"stateMutability":"nonpayable"},{"type":"function","name":"roundSnapshots","inputs":[{"name":"","type":"uint256","internalType":"uint256"}],"outputs":[{"name":"snapshotHash","type":"bytes32","internalType":"bytes32"},{"name":"playersMerkleRoot","type":"bytes32","internalType":"bytes32"},{"name":"totalBets","type":"uint96","internalType":"uint96"},{"name":"totalPayouts","type":"uint96","internalType":"uint96"},{"name":"numPlayers","type":"uint32","internalType":"uint32"}],"stateMutability":"view"},{"type":"function","name":"serverOperator","inputs":[],"outputs":[{"name":"","type":"address","internalType":"address"}],"stateMutability":"view"},{"type":"function","name":"setServerOperator","inputs":[{"name":"newOperator","type":"address","internalType":"address"}],"outputs":[],"stateMutability":"nonpayable"},{"type":"function","name":"snapshotRound","inputs":[{"name":"roundId","type":"uint256","internalType":"uint256"},{"name":"snapshotHash","type":"bytes32","internalType":"bytes32"},{"name":"playersMerkleRoot","type":"bytes32","internalType":"bytes32"},{"name":"totalBets","type":"uint96","internalType":"uint96"},{"name":"totalPayouts","type":"uint96","internalType":"uint96"},{"name":"numPlayers","type":"uint32","internalType":"uint32"}],"outputs":[],"stateMutability":"nonpayable"},{"type":"function","name":"totalPlayerBalances","inputs":[],"outputs":[{"name":"","type":"uint256","internalType":"uint256"}],"stateMutability":"view"},{"type":"function","name":"transferOwnership","inputs":[{"name":"newOwner","type":"address","internalType":"address"}],"outputs":[],"stateMutability":"nonpayable"},{"type":"function","name":"unpause","inputs":[],"outputs":[],"stateMutability":"nonpayable"},{"type":"function","name":"upgradeToAndCall","inputs":[{"name":"newImplementation","type":"address","internalType":"address"},{"name":"data","type":"bytes","internalType":"bytes"}],"outputs":[],"stateMutability":"payable"},{"type":"function","name":"usdcToken","inputs":[],"outputs":[{"name":"","type":"address","internalType":"contract IERC20"}],"stateMutability":"view"},{"type":"function","name":"withdraw","inputs":[{"name":"amount","type":"uint256","internalType":"uint256"}],"outputs":[],"stateMutability":"nonpayable"},{"type":"function","name":"withdrawEth","inputs":[{"name":"to","type":"address","internalType":"address payable"},{"name":"amount","type":"uint256","internalType":"uint256"}],"outputs":[],"stateMutability":"nonpayable"},{"type":"function","name":"withdrawHouseProfits","inputs":[{"name":"amount","type":"uint256","internalType":"uint256"}],"outputs":[],"stateMutability":"nonpayable"},{"type":"event","name":"BetPlaced","inputs":[{"name":"roundId","type":"uint256","indexed":true,"internalType":"uint256"},{"name":"player","type":"address","indexed":true,"internalType":"address"},{"name":"amount","type":"uint256","indexed":false,"internalType":"uint256"}],"anonymous":false},{"type":"event","name":"CashOut","inputs":[{"name":"roundId","type":"uint256","indexed":true,"internalType":"uint256"},{"name":"player","type":"address","indexed":true,"internalType":"address"},{"name":"payout","type":"uint256","indexed":false,"internalType":"uint256"},{"name":"multiplier","type":"uint256","indexed":false,"internalType":"uint256"}],"anonymous":false},{"type":"event","name":"Deposit","inputs":[{"name":"player","type":"address","indexed":true,"internalType":"address"},{"name":"amount","type":"uint256","indexed":false,"internalType":"uint256"}],"anonymous":false},{"type":"event","name":"HouseFunded","inputs":[{"name":"sender","type":"address","indexed":true,"internalType":"address"},{"name":"amount","type":"uint256","indexed":false,"internalType":"uint256"}],"anonymous":false},{"type":"event","name":"HouseWithdrawn","inputs":[{"name":"recipient","type":"address","indexed":true,"internalType":"address"},{"name":"amount","type":"uint256","indexed":false,"internalType":"uint256"}],"anonymous":false},{"type":"event","name":"Initialized","inputs":[{"name":"version","type":"uint64","indexed":false,"internalType":"uint64"}],"anonymous":false},{"type":"event","name":"OwnershipTransferred","inputs":[{"name":"previousOwner","type":"address","indexed":true,"internalType":"address"},{"name":"newOwner","type":"address","indexed":true,"internalType":"address"}],"anonymous":false},{"type":"event","name":"Paused","inputs":[{"name":"account","type":"address","indexed":false,"internalType":"address"}],"anonymous":false},{"type":"event","name":"RoundSnapshot","inputs":[{"name":"roundId","type":"uint256","indexed":true,"internalType":"uint256"},{"name":"snapshotHash","type":"bytes32","indexed":false,"internalType":"bytes32"},{"name":"playersMerkleRoot","type":"bytes32","indexed":false,"internalType":"bytes32"},{"name":"totalBets","type":"uint256","indexed":false,"internalType":"uint256"},{"name":"totalPayouts","type":"uint256","indexed":false,"internalType":"uint256"},{"name":"numPlayers","type":"uint32","indexed":false,"internalType":"uint32"}],"anonymous":false},{"type":"event","name":"ServerOperatorUpdated","inputs":[{"name":"newOperator","type":"address","indexed":true,"internalType":"address"}],"anonymous":false},{"type":"event","name":"Unpaused","inputs":[{"name":"account","type":"address","indexed":false,"internalType":"address"}],"anonymous":false},{"type":"event","name":"Upgraded","inputs":[{"name":"implementation","type":"address","indexed":true,"internalType":"address"}],"anonymous":false},{"type":"event","name":"Withdrawal","inputs":[{"name":"player","type":"address","indexed":true,"internalType":"address"},{"name":"amount","type":"uint256","indexed":false,"internalType":"uint256"}],"anonymous":false},{"type":"error","name":"AddressEmptyCode","inputs":[{"name":"target","type":"address","internalType":"address"}]},{"type":"error","name":"ERC1967InvalidImplementation","inputs":[{"name":"implementation","type":"address","internalType":"address"}]},{"type":"error","name":"ERC1967NonPayable","inputs":[]},{"type":"error","name":"ETHTransferFailed","inputs":[]},{"type":"error","name":"EnforcedPause","inputs":[]},{"type":"error","name":"ExpectedPause","inputs":[]},{"type":"error","name":"FailedCall","inputs":[]},{"type":"error","name":"InsufficientBalance","inputs":[]},{"type":"error","name":"InsufficientHouseBalance","inputs":[]},{"type":"error","name":"InvalidAddress","inputs":[]},{"type":"error","name":"InvalidBetAmount","inputs":[]},{"type":"error","name":"InvalidInitialization","inputs":[]},{"type":"error","name":"InvalidTokenAddress","inputs":[]},{"type":"error","name":"NotInitializing","inputs":[]},{"type":"error","name":"OwnableInvalidOwner","inputs":[{"name":"owner","type":"address","internalType":"address"}]},{"type":"error","name":"OwnableUnauthorizedAccount","inputs":[{"name":"account","type":"address","internalType":"address"}]},{"type":"error","name":"ReentrancyGuardReentrantCall","inputs":[]},{"type":"error","name":"TransferFailed","inputs":[]},{"type":"error","name":"UUPSUnauthorizedCallContext","inputs":[]},{"type":"error","name":"UUPSUnsupportedProxiableUUID","inputs":[{"name":"slot","type":"bytes32","internalType":"bytes32"}]},{"type":"error","name":"Unauthorized","inputs":[]}],"bytecode":{"object":"0x60a06040523073ffffffffffffffffffffffffffffffffffffffff1660809073ffffffffffffffffffffffffffffffffffffffff16815250348015610042575f5ffd5b50600161006161005661007a60201b60201c565b6100a360201b60201c565b5f01819055506100756100ac60201b60201c565b610227565b5f7f9b779b17422d0df92223018b32b4d1fa46e071723d6817e2486d003becc55f005f1b905090565b5f819050919050565b5f6100bb6101aa60201b60201c565b9050805f0160089054906101000a900460ff1615610105576040517ff92ee8a900000000000000000000000000000000000000000000000000000000815260040160405180910390fd5b67ffffffffffffffff8016815f015f9054906101000a900467ffffffffffffffff1667ffffffffffffffff16146101a75767ffffffffffffffff815f015f6101000a81548167ffffffffffffffff021916908367ffffffffffffffff1602179055507fc7f505b2f371ae2175ee4913f4499e1f2633a7b5936321eed1cdaeb6115181d267ffffffffffffffff60405161019e919061020e565b60405180910390a15b50565b5f5f6101ba6101c360201b60201c565b90508091505090565b5f7ff0c57e16840df040f15088dc2f81fe391c3923bec73e23a9662efc9c229c6a005f1b905090565b5f67ffffffffffffffff82169050919050565b610208816101ec565b82525050565b5f6020820190506102215f8301846101ff565b92915050565b6080516132d461024d5f395f8181611d9a01528181611def0152611fa901526132d45ff3fe6080604052600436106101ba575f3560e01c80637b38314c116100eb578063ad3cb1cc11610089578063c140fb9011610063578063c140fb9014610583578063d148fcfb146105ab578063f2fde38b146105d3578063fc300c11146105fb576101c1565b8063ad3cb1cc146104f1578063b6b55f251461051b578063c0447be714610543576101c1565b80638456cb59116100c55780638456cb591461045f5780638746cf98146104755780638d1e75c71461049d5780638da5cb5b146104c7576101c1565b80637b38314c146103cf5780637d6bf6181461040b5780637e95b52314610435576101c1565b80634b9ddafe116101585780635c975abb116101325780635c975abb1461033d5780636540742f14610367578063715018a6146103915780637896f891146103a7576101c1565b80634b9ddafe146102cd5780634f1ef286146102f757806352d1902d14610313576101c1565b80632e1a7d4d116101945780632e1a7d4d1461023f5780633f4ba83a14610267578063485cc9551461027d5780634a970be7146102a5576101c1565b806311eac855146101c55780631b9a91a4146101ef5780632020cc1414610217576101c1565b366101c157005b5f5ffd5b3480156101d0575f5ffd5b506101d9610623565b6040516101e691906127a6565b60405180910390f35b3480156101fa575f5ffd5b506102156004803603810190610210919061283e565b610647565b005b348015610222575f5ffd5b5061023d600480360381019061023891906128b7565b61072d565b005b34801561024a575f5ffd5b50610265600480360381019061026091906128e2565b610820565b005b348015610272575f5ffd5b5061027b610a72565b005b348015610288575f5ffd5b506102a3600480360381019061029e919061290d565b610a84565b005b3480156102b0575f5ffd5b506102cb60048036038101906102c691906129b4565b610cf2565b005b3480156102d8575f5ffd5b506102e1610f6d565b6040516102ee9190612a3a565b60405180910390f35b610311600480360381019061030c9190612b8f565b610f76565b005b34801561031e575f5ffd5b50610327610f95565b6040516103349190612bf8565b60405180910390f35b348015610348575f5ffd5b50610351610fc6565b60405161035e9190612c2b565b60405180910390f35b348015610372575f5ffd5b5061037b610fe8565b6040516103889190612a3a565b60405180910390f35b34801561039c575f5ffd5b506103a5610fef565b005b3480156103b2575f5ffd5b506103cd60048036038101906103c89190612c44565b611002565b005b3480156103da575f5ffd5b506103f560048036038101906103f091906128b7565b6111a3565b6040516104029190612a3a565b60405180910390f35b348015610416575f5ffd5b5061041f6111b8565b60405161042c9190612a3a565b60405180910390f35b348015610440575f5ffd5b506104496111be565b6040516104569190612a3a565b60405180910390f35b34801561046a575f5ffd5b506104736111c6565b005b348015610480575f5ffd5b5061049b600480360381019061049691906128e2565b6111d8565b005b3480156104a8575f5ffd5b506104b1611309565b6040516104be9190612ca3565b60405180910390f35b3480156104d2575f5ffd5b506104db61132e565b6040516104e89190612ca3565b60405180910390f35b3480156104fc575f5ffd5b50610505611363565b6040516105129190612d1c565b60405180910390f35b348015610526575f5ffd5b50610541600480360381019061053c91906128e2565b61139c565b005b34801561054e575f5ffd5b50610569600480360381019061056491906128e2565b611581565b60405161057a959493929190612d80565b60405180910390f35b34801561058e575f5ffd5b506105a960048036038101906105a49190612dd1565b6115f2565b005b3480156105b6575f5ffd5b506105d160048036038101906105cc91906128e2565b6117f6565b005b3480156105de575f5ffd5b506105f960048036038101906105f491906128b7565b611a16565b005b348015610606575f5ffd5b50610621600480360381019061061c9190612e89565b611a9a565b005b5f5f9054906101000a900473ffffffffffffffffffffffffffffffffffffffff1681565b61064f611bf5565b80471015610689576040517ff4d678b800000000000000000000000000000000000000000000000000000000815260040160405180910390fd5b5f8273ffffffffffffffffffffffffffffffffffffffff16826040516106ae90612f3f565b5f6040518083038185875af1925050503d805f81146106e8576040519150601f19603f3d011682016040523d82523d5f602084013e6106ed565b606091505b5050905080610728576040517fb12d13eb00000000000000000000000000000000000000000000000000000000815260040160405180910390fd5b505050565b610735611bf5565b5f73ffffffffffffffffffffffffffffffffffffffff168173ffffffffffffffffffffffffffffffffffffffff160361079a576040517fe6c4247b00000000000000000000000000000000000000000000000000000000815260040160405180910390fd5b8060015f6101000a81548173ffffffffffffffffffffffffffffffffffffffff021916908373ffffffffffffffffffffffffffffffffffffffff1602179055508073ffffffffffffffffffffffffffffffffffffffff167fc594cfe0873fd5e2546fbb89e6c25d43cfef8ba65bee8f7b586b3970e82d02bb60405160405180910390a250565b610828611c7c565b5f8103610861576040517f9de3d44100000000000000000000000000000000000000000000000000000000815260040160405180910390fd5b8060025f3373ffffffffffffffffffffffffffffffffffffffff1673ffffffffffffffffffffffffffffffffffffffff1681526020019081526020015f205410156108d8576040517ff4d678b800000000000000000000000000000000000000000000000000000000815260040160405180910390fd5b8060025f3373ffffffffffffffffffffffffffffffffffffffff1673ffffffffffffffffffffffffffffffffffffffff1681526020019081526020015f205f8282546109249190612f80565b925050819055508060035f82825461093c9190612f80565b925050819055505f5f5f9054906101000a900473ffffffffffffffffffffffffffffffffffffffff1673ffffffffffffffffffffffffffffffffffffffff1663a9059cbb33846040518363ffffffff1660e01b815260040161099f929190612fb3565b6020604051808303815f875af11580156109bb573d5f5f3e3d5ffd5b505050506040513d601f19601f820116820180604052508101906109df9190613004565b905080610a18576040517f90b8ec1800000000000000000000000000000000000000000000000000000000815260040160405180910390fd5b3373ffffffffffffffffffffffffffffffffffffffff167f7fcf532c15f0a6db0bd6d0e038bea71d30d808c7d98cb3bf7268a95bf5081b6583604051610a5e9190612a3a565b60405180910390a250610a6f611c9e565b50565b610a7a611bf5565b610a82611cb8565b565b5f610a8d611d26565b90505f815f0160089054906101000a900460ff161590505f825f015f9054906101000a900467ffffffffffffffff1690505f5f8267ffffffffffffffff16148015610ad55750825b90505f60018367ffffffffffffffff16148015610b0857505f3073ffffffffffffffffffffffffffffffffffffffff163b145b905081158015610b16575080155b15610b4d576040517ff92ee8a900000000000000000000000000000000000000000000000000000000815260040160405180910390fd5b6001855f015f6101000a81548167ffffffffffffffff021916908367ffffffffffffffff1602179055508315610b9a576001855f0160086101000a81548160ff0219169083151502179055505b610ba386611d39565b610bab611d4d565b5f73ffffffffffffffffffffffffffffffffffffffff168773ffffffffffffffffffffffffffffffffffffffff1603610c10576040517f1eb00b0600000000000000000000000000000000000000000000000000000000815260040160405180910390fd5b865f5f6101000a81548173ffffffffffffffffffffffffffffffffffffffff021916908373ffffffffffffffffffffffffffffffffffffffff1602179055508560015f6101000a81548173ffffffffffffffffffffffffffffffffffffffff021916908373ffffffffffffffffffffffffffffffffffffffff1602179055508315610ce9575f855f0160086101000a81548160ff0219169083151502179055507fc7f505b2f371ae2175ee4913f4499e1f2633a7b5936321eed1cdaeb6115181d26001604051610ce0919061307b565b60405180910390a15b50505050505050565b610cfa611d57565b610d02611c7c565b5f8503610d3b576040517f9de3d44100000000000000000000000000000000000000000000000000000000815260040160405180910390fd5b5f5f9054906101000a900473ffffffffffffffffffffffffffffffffffffffff1673ffffffffffffffffffffffffffffffffffffffff1663d505accf333088888888886040518863ffffffff1660e01b8152600401610da097969594939291906130a3565b5f604051808303815f87803b158015610db7575f5ffd5b505af1158015610dc9573d5f5f3e3d5ffd5b505050505f5f5f9054906101000a900473ffffffffffffffffffffffffffffffffffffffff1673ffffffffffffffffffffffffffffffffffffffff166323b872dd3330896040518463ffffffff1660e01b8152600401610e2b93929190613110565b6020604051808303815f875af1158015610e47573d5f5f3e3d5ffd5b505050506040513d601f19601f82011682018060405250810190610e6b9190613004565b905080610ea4576040517f90b8ec1800000000000000000000000000000000000000000000000000000000815260040160405180910390fd5b8560025f3373ffffffffffffffffffffffffffffffffffffffff1673ffffffffffffffffffffffffffffffffffffffff1681526020019081526020015f205f828254610ef09190613145565b925050819055508560035f828254610f089190613145565b925050819055503373ffffffffffffffffffffffffffffffffffffffff167fe1fffcc4923d04b559f4d29a8bfc6cda04eb5b0d3c460751c2402c5c5cc9109c87604051610f559190612a3a565b60405180910390a250610f66611c9e565b5050505050565b64012a05f20081565b610f7e611d98565b610f8782611e7e565b610f918282611e89565b5050565b5f610f9e611fa7565b7f360894a13ba1a3210667c828492db98dca3e2076cc3735a920a3ca505d382bbc5f1b905090565b5f5f610fd061202e565b9050805f015f9054906101000a900460ff1691505090565b620186a081565b610ff7611bf5565b6110005f612055565b565b61100a611c7c565b611012611d57565b61101a612126565b620186a081108061102e5750633b9aca0081115b15611065576040517f9de3d44100000000000000000000000000000000000000000000000000000000815260040160405180910390fd5b8060025f8473ffffffffffffffffffffffffffffffffffffffff1673ffffffffffffffffffffffffffffffffffffffff1681526020019081526020015f205410156110dc576040517ff4d678b800000000000000000000000000000000000000000000000000000000815260040160405180910390fd5b8060025f8473ffffffffffffffffffffffffffffffffffffffff1673ffffffffffffffffffffffffffffffffffffffff1681526020019081526020015f205f8282546111289190612f80565b925050819055508060035f8282546111409190612f80565b925050819055508173ffffffffffffffffffffffffffffffffffffffff16837f87b9df6fa7123c2e6044c3a3a37b4b0662c188d7a58ef86ee55067c46e4613ad8360405161118e9190612a3a565b60405180910390a361119e611c9e565b505050565b6002602052805f5260405f205f915090505481565b60035481565b633b9aca0081565b6111ce611bf5565b6111d66121ae565b565b6111e0611bf5565b5f5f5f9054906101000a900473ffffffffffffffffffffffffffffffffffffffff1673ffffffffffffffffffffffffffffffffffffffff166323b872dd3330856040518463ffffffff1660e01b815260040161123e93929190613110565b6020604051808303815f875af115801561125a573d5f5f3e3d5ffd5b505050506040513d601f19601f8201168201806040525081019061127e9190613004565b9050806112b7576040517f90b8ec1800000000000000000000000000000000000000000000000000000000815260040160405180910390fd5b3373ffffffffffffffffffffffffffffffffffffffff167f68b5652e3b29601ecd57e94e383b10ba5e2f2726963da06839bb31da7e5dd0d9836040516112fd9190612a3a565b60405180910390a25050565b60015f9054906101000a900473ffffffffffffffffffffffffffffffffffffffff1681565b5f5f61133861221d565b9050805f015f9054906101000a900473ffffffffffffffffffffffffffffffffffffffff1691505090565b6040518060400160405280600581526020017f352e302e3000000000000000000000000000000000000000000000000000000081525081565b6113a4611d57565b6113ac611c7c565b5f81036113e5576040517f9de3d44100000000000000000000000000000000000000000000000000000000815260040160405180910390fd5b5f5f5f9054906101000a900473ffffffffffffffffffffffffffffffffffffffff1673ffffffffffffffffffffffffffffffffffffffff166323b872dd3330856040518463ffffffff1660e01b815260040161144393929190613110565b6020604051808303815f875af115801561145f573d5f5f3e3d5ffd5b505050506040513d601f19601f820116820180604052508101906114839190613004565b9050806114bc576040517f90b8ec1800000000000000000000000000000000000000000000000000000000815260040160405180910390fd5b8160025f3373ffffffffffffffffffffffffffffffffffffffff1673ffffffffffffffffffffffffffffffffffffffff1681526020019081526020015f205f8282546115089190613145565b925050819055508160035f8282546115209190613145565b925050819055503373ffffffffffffffffffffffffffffffffffffffff167fe1fffcc4923d04b559f4d29a8bfc6cda04eb5b0d3c460751c2402c5c5cc9109c8360405161156d9190612a3a565b60405180910390a25061157e611c9e565b50565b6004602052805f5260405f205f91509050805f015490806001015490806002015f9054906101000a90046bffffffffffffffffffffffff169080600201600c9054906101000a90046bffffffffffffffffffffffff16908060020160189054906101000a900463ffffffff16905085565b6115fa611c7c565b611602611d57565b61160a612126565b64012a05f200821115611649576040517f9c220f0300000000000000000000000000000000000000000000000000000000815260040160405180910390fd5b5f6003545f5f9054906101000a900473ffffffffffffffffffffffffffffffffffffffff1673ffffffffffffffffffffffffffffffffffffffff166370a08231306040518263ffffffff1660e01b81526004016116a69190612ca3565b602060405180830381865afa1580156116c1573d5f5f3e3d5ffd5b505050506040513d601f19601f820116820180604052508101906116e5919061318c565b6116ef9190612f80565b90508281101561172b576040517f9c220f0300000000000000000000000000000000000000000000000000000000815260040160405180910390fd5b8260025f8673ffffffffffffffffffffffffffffffffffffffff1673ffffffffffffffffffffffffffffffffffffffff1681526020019081526020015f205f8282546117779190613145565b925050819055508260035f82825461178f9190613145565b925050819055508373ffffffffffffffffffffffffffffffffffffffff16857f52f249faa2f53f574e5317b715d98d43b58e9c8800cbc86741e359b932a7409f85856040516117df9291906131b7565b60405180910390a3506117f0611c9e565b50505050565b6117fe611bf5565b5f6003545f5f9054906101000a900473ffffffffffffffffffffffffffffffffffffffff1673ffffffffffffffffffffffffffffffffffffffff166370a08231306040518263ffffffff1660e01b815260040161185b9190612ca3565b602060405180830381865afa158015611876573d5f5f3e3d5ffd5b505050506040513d601f19601f8201168201806040525081019061189a919061318c565b6118a49190612f80565b9050808211156118e0576040517f9c220f0300000000000000000000000000000000000000000000000000000000815260040160405180910390fd5b5f5f5f9054906101000a900473ffffffffffffffffffffffffffffffffffffffff1673ffffffffffffffffffffffffffffffffffffffff1663a9059cbb61192561132e565b856040518363ffffffff1660e01b8152600401611943929190612fb3565b6020604051808303815f875af115801561195f573d5f5f3e3d5ffd5b505050506040513d601f19601f820116820180604052508101906119839190613004565b9050806119bc576040517f90b8ec1800000000000000000000000000000000000000000000000000000000815260040160405180910390fd5b6119c461132e565b73ffffffffffffffffffffffffffffffffffffffff167fd7d7cc9b93e284aa94ef15ab7a70191483528f4e45d0bd07818aef974077ba7884604051611a099190612a3a565b60405180910390a2505050565b611a1e611bf5565b5f73ffffffffffffffffffffffffffffffffffffffff168173ffffffffffffffffffffffffffffffffffffffff1603611a8e575f6040517f1e4fbdf7000000000000000000000000000000000000000000000000000000008152600401611a859190612ca3565b60405180910390fd5b611a9781612055565b50565b611aa2612126565b611aaa611d57565b6040518060a00160405280868152602001858152602001846bffffffffffffffffffffffff168152602001836bffffffffffffffffffffffff1681526020018263ffffffff1681525060045f8881526020019081526020015f205f820151815f0155602082015181600101556040820151816002015f6101000a8154816bffffffffffffffffffffffff02191690836bffffffffffffffffffffffff160217905550606082015181600201600c6101000a8154816bffffffffffffffffffffffff02191690836bffffffffffffffffffffffff16021790555060808201518160020160186101000a81548163ffffffff021916908363ffffffff160217905550905050857f783fd685b10c6d1d28d9ff910d441c5f46dbff2239a5ab73e30591bfdb1b40d18686868686604051611be595949392919061320e565b60405180910390a2505050505050565b611bfd612244565b73ffffffffffffffffffffffffffffffffffffffff16611c1b61132e565b73ffffffffffffffffffffffffffffffffffffffff1614611c7a57611c3e612244565b6040517f118cdaa7000000000000000000000000000000000000000000000000000000008152600401611c719190612ca3565b60405180910390fd5b565b611c8461224b565b6002611c96611c9161228c565b6122b5565b5f0181905550565b6001611cb0611cab61228c565b6122b5565b5f0181905550565b611cc06122be565b5f611cc961202e565b90505f815f015f6101000a81548160ff0219169083151502179055507f5db9ee0a495bf2e6ff9c91a7834c1ba4fdd244a5e8aa4e537bd38aeae4b073aa611d0e612244565b604051611d1b9190612ca3565b60405180910390a150565b5f5f611d306122fe565b90508091505090565b611d41612327565b611d4a81612367565b50565b611d55612327565b565b611d5f610fc6565b15611d96576040517fd93c066500000000000000000000000000000000000000000000000000000000815260040160405180910390fd5b565b7f000000000000000000000000000000000000000000000000000000000000000073ffffffffffffffffffffffffffffffffffffffff163073ffffffffffffffffffffffffffffffffffffffff161480611e4557507f000000000000000000000000000000000000000000000000000000000000000073ffffffffffffffffffffffffffffffffffffffff16611e2c6123eb565b73ffffffffffffffffffffffffffffffffffffffff1614155b15611e7c576040517fe07c8dba00000000000000000000000000000000000000000000000000000000815260040160405180910390fd5b565b611e86611bf5565b50565b8173ffffffffffffffffffffffffffffffffffffffff166352d1902d6040518163ffffffff1660e01b8152600401602060405180830381865afa925050508015611ef157506040513d601f19601f82011682018060405250810190611eee9190613273565b60015b611f3257816040517f4c9c8ce3000000000000000000000000000000000000000000000000000000008152600401611f299190612ca3565b60405180910390fd5b7f360894a13ba1a3210667c828492db98dca3e2076cc3735a920a3ca505d382bbc5f1b8114611f9857806040517faa1d49a4000000000000000000000000000000000000000000000000000000008152600401611f8f9190612bf8565b60405180910390fd5b611fa2838361243e565b505050565b7f000000000000000000000000000000000000000000000000000000000000000073ffffffffffffffffffffffffffffffffffffffff163073ffffffffffffffffffffffffffffffffffffffff161461202c576040517fe07c8dba00000000000000000000000000000000000000000000000000000000815260040160405180910390fd5b565b5f7fcd5ed15c6e187e77e9aee88184c21f4f2182ab5827cb3b7e07fbedcd63f03300905090565b5f61205e61221d565b90505f815f015f9054906101000a900473ffffffffffffffffffffffffffffffffffffffff16905082825f015f6101000a81548173ffffffffffffffffffffffffffffffffffffffff021916908373ffffffffffffffffffffffffffffffffffffffff1602179055508273ffffffffffffffffffffffffffffffffffffffff168173ffffffffffffffffffffffffffffffffffffffff167f8be0079c531659141344cd1fd0a4f28419497f9722a3daafe3b4186f6b6457e060405160405180910390a3505050565b60015f9054906101000a900473ffffffffffffffffffffffffffffffffffffffff1673ffffffffffffffffffffffffffffffffffffffff163373ffffffffffffffffffffffffffffffffffffffff16146121ac576040517f82b4290000000000000000000000000000000000000000000000000000000000815260040160405180910390fd5b565b6121b6611d57565b5f6121bf61202e565b90506001815f015f6101000a81548160ff0219169083151502179055507f62e78cea01bee320cd4e420270b5ea74000d11b0c9f74754ebdbfc544b05a258612205612244565b6040516122129190612ca3565b60405180910390a150565b5f7f9016d09d72d40fdae2fd8ceac6b6234c7706214fd39c1cd1e609a0528c199300905090565b5f33905090565b6122536124b0565b1561228a576040517f3ee5aeb500000000000000000000000000000000000000000000000000000000815260040160405180910390fd5b565b5f7f9b779b17422d0df92223018b32b4d1fa46e071723d6817e2486d003becc55f005f1b905090565b5f819050919050565b6122c6610fc6565b6122fc576040517f8dfc202b00000000000000000000000000000000000000000000000000000000815260040160405180910390fd5b565b5f7ff0c57e16840df040f15088dc2f81fe391c3923bec73e23a9662efc9c229c6a005f1b905090565b61232f6124cc565b612365576040517fd7e6bcf800000000000000000000000000000000000000000000000000000000815260040160405180910390fd5b565b61236f612327565b5f73ffffffffffffffffffffffffffffffffffffffff168173ffffffffffffffffffffffffffffffffffffffff16036123df575f6040517f1e4fbdf70000000000000000000000000000000000000000000000000000000081526004016123d69190612ca3565b60405180910390fd5b6123e881612055565b50565b5f6124177f360894a13ba1a3210667c828492db98dca3e2076cc3735a920a3ca505d382bbc5f1b6124ea565b5f015f9054906101000a900473ffffffffffffffffffffffffffffffffffffffff16905090565b612447826124f3565b8173ffffffffffffffffffffffffffffffffffffffff167fbc7cd75a20ee27fd9adebab32041f755214dbc6bffa90cc0225b39da2e5c2d3b60405160405180910390a25f815111156124a35761249d82826125bc565b506124ac565b6124ab6126ad565b5b5050565b5f60026124c36124be61228c565b6122b5565b5f015414905090565b5f6124d5611d26565b5f0160089054906101000a900460ff16905090565b5f819050919050565b5f8173ffffffffffffffffffffffffffffffffffffffff163b0361254e57806040517f4c9c8ce30000000000000000000000000000000000000000000000000000000081526004016125459190612ca3565b60405180910390fd5b8061257a7f360894a13ba1a3210667c828492db98dca3e2076cc3735a920a3ca505d382bbc5f1b6124ea565b5f015f6101000a81548173ffffffffffffffffffffffffffffffffffffffff021916908373ffffffffffffffffffffffffffffffffffffffff16021790555050565b60605f6125c984846126e9565b90508080156125ff57505f6125dc6126fd565b11806125fe57505f8473ffffffffffffffffffffffffffffffffffffffff163b115b5b156126145761260c612704565b9150506126a7565b801561265757836040517f9996b31500000000000000000000000000000000000000000000000000000000815260040161264e9190612ca3565b60405180910390fd5b5f6126606126fd565b11156126735761266e612721565b6126a5565b6040517fd6bda27500000000000000000000000000000000000000000000000000000000815260040160405180910390fd5b505b92915050565b5f3411156126e7576040517fb398979f00000000000000000000000000000000000000000000000000000000815260040160405180910390fd5b565b5f5f5f835160208501865af4905092915050565b5f3d905090565b606060405190503d81523d5f602083013e3d602001810160405290565b6040513d5f823e3d81fd5b5f73ffffffffffffffffffffffffffffffffffffffff82169050919050565b5f819050919050565b5f61276e6127696127648461272c565b61274b565b61272c565b9050919050565b5f61277f82612754565b9050919050565b5f61279082612775565b9050919050565b6127a081612786565b82525050565b5f6020820190506127b95f830184612797565b92915050565b5f604051905090565b5f5ffd5b5f5ffd5b5f6127da8261272c565b9050919050565b6127ea816127d0565b81146127f4575f5ffd5b50565b5f81359050612805816127e1565b92915050565b5f819050919050565b61281d8161280b565b8114612827575f5ffd5b50565b5f8135905061283881612814565b92915050565b5f5f60408385031215612854576128536127c8565b5b5f612861858286016127f7565b92505060206128728582860161282a565b9150509250929050565b5f6128868261272c565b9050919050565b6128968161287c565b81146128a0575f5ffd5b50565b5f813590506128b18161288d565b92915050565b5f602082840312156128cc576128cb6127c8565b5b5f6128d9848285016128a3565b91505092915050565b5f602082840312156128f7576128f66127c8565b5b5f6129048482850161282a565b91505092915050565b5f5f60408385031215612923576129226127c8565b5b5f612930858286016128a3565b9250506020612941858286016128a3565b9150509250929050565b5f60ff82169050919050565b6129608161294b565b811461296a575f5ffd5b50565b5f8135905061297b81612957565b92915050565b5f819050919050565b61299381612981565b811461299d575f5ffd5b50565b5f813590506129ae8161298a565b92915050565b5f5f5f5f5f60a086880312156129cd576129cc6127c8565b5b5f6129da8882890161282a565b95505060206129eb8882890161282a565b94505060406129fc8882890161296d565b9350506060612a0d888289016129a0565b9250506080612a1e888289016129a0565b9150509295509295909350565b612a348161280b565b82525050565b5f602082019050612a4d5f830184612a2b565b92915050565b5f5ffd5b5f5ffd5b5f601f19601f8301169050919050565b7f4e487b71000000000000000000000000000000000000000000000000000000005f52604160045260245ffd5b612aa182612a5b565b810181811067ffffffffffffffff82111715612ac057612abf612a6b565b5b80604052505050565b5f612ad26127bf565b9050612ade8282612a98565b919050565b5f67ffffffffffffffff821115612afd57612afc612a6b565b5b612b0682612a5b565b9050602081019050919050565b828183375f83830152505050565b5f612b33612b2e84612ae3565b612ac9565b905082815260208101848484011115612b4f57612b4e612a57565b5b612b5a848285612b13565b509392505050565b5f82601f830112612b7657612b75612a53565b5b8135612b86848260208601612b21565b91505092915050565b5f5f60408385031215612ba557612ba46127c8565b5b5f612bb2858286016128a3565b925050602083013567ffffffffffffffff811115612bd357612bd26127cc565b5b612bdf85828601612b62565b9150509250929050565b612bf281612981565b82525050565b5f602082019050612c0b5f830184612be9565b92915050565b5f8115159050919050565b612c2581612c11565b82525050565b5f602082019050612c3e5f830184612c1c565b92915050565b5f5f5f60608486031215612c5b57612c5a6127c8565b5b5f612c688682870161282a565b9350506020612c79868287016128a3565b9250506040612c8a8682870161282a565b9150509250925092565b612c9d8161287c565b82525050565b5f602082019050612cb65f830184612c94565b92915050565b5f81519050919050565b5f82825260208201905092915050565b8281835e5f83830152505050565b5f612cee82612cbc565b612cf88185612cc6565b9350612d08818560208601612cd6565b612d1181612a5b565b840191505092915050565b5f6020820190508181035f830152612d348184612ce4565b905092915050565b5f6bffffffffffffffffffffffff82169050919050565b612d5c81612d3c565b82525050565b5f63ffffffff82169050919050565b612d7a81612d62565b82525050565b5f60a082019050612d935f830188612be9565b612da06020830187612be9565b612dad6040830186612d53565b612dba6060830185612d53565b612dc76080830184612d71565b9695505050505050565b5f5f5f5f60808587031215612de957612de86127c8565b5b5f612df68782880161282a565b9450506020612e07878288016128a3565b9350506040612e188782880161282a565b9250506060612e298782880161282a565b91505092959194509250565b612e3e81612d3c565b8114612e48575f5ffd5b50565b5f81359050612e5981612e35565b92915050565b612e6881612d62565b8114612e72575f5ffd5b50565b5f81359050612e8381612e5f565b92915050565b5f5f5f5f5f5f60c08789031215612ea357612ea26127c8565b5b5f612eb089828a0161282a565b9650506020612ec189828a016129a0565b9550506040612ed289828a016129a0565b9450506060612ee389828a01612e4b565b9350506080612ef489828a01612e4b565b92505060a0612f0589828a01612e75565b9150509295509295509295565b5f81905092915050565b50565b5f612f2a5f83612f12565b9150612f3582612f1c565b5f82019050919050565b5f612f4982612f1f565b9150819050919050565b7f4e487b71000000000000000000000000000000000000000000000000000000005f52601160045260245ffd5b5f612f8a8261280b565b9150612f958361280b565b9250828203905081811115612fad57612fac612f53565b5b92915050565b5f604082019050612fc65f830185612c94565b612fd36020830184612a2b565b9392505050565b612fe381612c11565b8114612fed575f5ffd5b50565b5f81519050612ffe81612fda565b92915050565b5f60208284031215613019576130186127c8565b5b5f61302684828501612ff0565b91505092915050565b5f819050919050565b5f67ffffffffffffffff82169050919050565b5f61306561306061305b8461302f565b61274b565b613038565b9050919050565b6130758161304b565b82525050565b5f60208201905061308e5f83018461306c565b92915050565b61309d8161294b565b82525050565b5f60e0820190506130b65f83018a612c94565b6130c36020830189612c94565b6130d06040830188612a2b565b6130dd6060830187612a2b565b6130ea6080830186613094565b6130f760a0830185612be9565b61310460c0830184612be9565b98975050505050505050565b5f6060820190506131235f830186612c94565b6131306020830185612c94565b61313d6040830184612a2b565b949350505050565b5f61314f8261280b565b915061315a8361280b565b925082820190508082111561317257613171612f53565b5b92915050565b5f8151905061318681612814565b92915050565b5f602082840312156131a1576131a06127c8565b5b5f6131ae84828501613178565b91505092915050565b5f6040820190506131ca5f830185612a2b565b6131d76020830184612a2b565b9392505050565b5f6131f86131f36131ee84612d3c565b61274b565b61280b565b9050919050565b613208816131de565b82525050565b5f60a0820190506132215f830188612be9565b61322e6020830187612be9565b61323b60408301866131ff565b61324860608301856131ff565b6132556080830184612d71565b9695505050505050565b5f8151905061326d8161298a565b92915050565b5f60208284031215613288576132876127c8565b5b5f6132958482850161325f565b9150509291505056fea2646970667358221220736396b86193bee160d62317b74efece5a190f719c320e21f529545a76dc1fba64736f6c634300081c0033","linkReferences":{}},"methodIdentifiers":{"MAX_BET()":"7e95b523","MAX_PAYOUT()":"4b9ddafe","MIN_BET()":"6540742f","UPGRADE_INTERFACE_VERSION()":"ad3cb1cc","cashOutFor(uint256,address,uint256,uint256)":"c140fb90","deposit(uint256)":"b6b55f25","depositWithPermit(uint256,uint256,uint8,bytes32,bytes32)":"4a970be7","fundHouse(uint256)":"8746cf98","initialize(address,address)":"485cc955","owner()":"8da5cb5b","pause()":"8456cb59","paused()":"5c975abb","placeBetFor(uint256,address,uint256)":"7896f891","playerBalances(address)":"7b38314c","proxiableUUID()":"52d1902d","renounceOwnership()":"715018a6","roundSnapshots(uint256)":"c0447be7","serverOperator()":"8d1e75c7","setServerOperator(address)":"2020cc14","snapshotRound(uint256,bytes32,bytes32,uint96,uint96,uint32)":"fc300c11","totalPlayerBalances()":"7d6bf618","transferOwnership(address)":"f2fde38b","unpause()":"3f4ba83a","upgradeToAndCall(address,bytes)":"4f1ef286","usdcToken()":"11eac855","withdraw(uint256)":"2e1a7d4d","withdrawEth(address,uint256)":"1b9a91a4","withdrawHouseProfits(uint256)":"d148fcfb"},"id":44}